{
  "_format": "hh-sol-artifact-1",
  "contractName": "StknICO",
  "sourceName": "contracts/ICO.sol",
  "abi": [
    {
      "inputs": [
        {
          "internalType": "address payable",
          "name": "_icoWallet",
          "type": "address"
        },
        {
          "internalType": "address",
          "name": "_token",
          "type": "address"
        }
      ],
      "stateMutability": "nonpayable",
      "type": "constructor"
    },
    {
      "anonymous": false,
      "inputs": [
        {
          "indexed": true,
          "internalType": "address",
          "name": "from",
          "type": "address"
        },
        {
          "indexed": true,
          "internalType": "address",
          "name": "to",
          "type": "address"
        },
        {
          "indexed": false,
          "internalType": "uint256",
          "name": "value",
          "type": "uint256"
        },
        {
          "indexed": false,
          "internalType": "uint256",
          "name": "tokens",
          "type": "uint256"
        }
      ],
      "name": "Invest",
      "type": "event"
    },
    {
      "anonymous": false,
      "inputs": [
        {
          "indexed": false,
          "internalType": "address",
          "name": "to",
          "type": "address"
        },
        {
          "indexed": false,
          "internalType": "uint256",
          "name": "amount",
          "type": "uint256"
        },
        {
          "indexed": false,
          "internalType": "uint256",
          "name": "time",
          "type": "uint256"
        }
      ],
      "name": "TokenBurn",
      "type": "event"
    },
    {
      "stateMutability": "payable",
      "type": "fallback"
    },
    {
      "inputs": [],
      "name": "ICOState",
      "outputs": [
        {
          "internalType": "enum StknICO.State",
          "name": "",
          "type": "uint8"
        }
      ],
      "stateMutability": "view",
      "type": "function"
    },
    {
      "inputs": [],
      "name": "ICOWallet",
      "outputs": [
        {
          "internalType": "address payable",
          "name": "",
          "type": "address"
        }
      ],
      "stateMutability": "view",
      "type": "function"
    },
    {
      "inputs": [],
      "name": "admin",
      "outputs": [
        {
          "internalType": "address",
          "name": "",
          "type": "address"
        }
      ],
      "stateMutability": "view",
      "type": "function"
    },
    {
      "inputs": [],
      "name": "burn",
      "outputs": [
        {
          "internalType": "bool",
          "name": "",
          "type": "bool"
        }
      ],
      "stateMutability": "nonpayable",
      "type": "function"
    },
    {
      "inputs": [
        {
          "internalType": "address",
          "name": "_newAdmin",
          "type": "address"
        }
      ],
      "name": "changeAdmin",
      "outputs": [],
      "stateMutability": "nonpayable",
      "type": "function"
    },
    {
      "inputs": [
        {
          "internalType": "address payable",
          "name": "_newICOWallet",
          "type": "address"
        }
      ],
      "name": "changeICOWallet",
      "outputs": [],
      "stateMutability": "nonpayable",
      "type": "function"
    },
    {
      "inputs": [],
      "name": "endIco",
      "outputs": [],
      "stateMutability": "nonpayable",
      "type": "function"
    },
    {
      "inputs": [],
      "name": "getICOState",
      "outputs": [
        {
          "internalType": "string",
          "name": "",
          "type": "string"
        }
      ],
      "stateMutability": "view",
      "type": "function"
    },
    {
      "inputs": [],
      "name": "getICOTokenBalance",
      "outputs": [
        {
          "internalType": "uint256",
          "name": "",
          "type": "uint256"
        }
      ],
      "stateMutability": "view",
      "type": "function"
    },
    {
      "inputs": [],
      "name": "haltICO",
      "outputs": [],
      "stateMutability": "nonpayable",
      "type": "function"
    },
    {
      "inputs": [],
      "name": "hardCap",
      "outputs": [
        {
          "internalType": "uint256",
          "name": "",
          "type": "uint256"
        }
      ],
      "stateMutability": "view",
      "type": "function"
    },
    {
      "inputs": [],
      "name": "icoEndTime",
      "outputs": [
        {
          "internalType": "uint256",
          "name": "",
          "type": "uint256"
        }
      ],
      "stateMutability": "view",
      "type": "function"
    },
    {
      "inputs": [],
      "name": "icoStartTime",
      "outputs": [
        {
          "internalType": "uint256",
          "name": "",
          "type": "uint256"
        }
      ],
      "stateMutability": "view",
      "type": "function"
    },
    {
      "inputs": [],
      "name": "invest",
      "outputs": [
        {
          "internalType": "bool",
          "name": "",
          "type": "bool"
        }
      ],
      "stateMutability": "payable",
      "type": "function"
    },
    {
      "inputs": [
        {
          "internalType": "address",
          "name": "",
          "type": "address"
        }
      ],
      "name": "investedAmountOf",
      "outputs": [
        {
          "internalType": "uint256",
          "name": "",
          "type": "uint256"
        }
      ],
      "stateMutability": "view",
      "type": "function"
    },
    {
      "inputs": [
        {
          "internalType": "address",
          "name": "_investor",
          "type": "address"
        }
      ],
      "name": "investorBalanceOf",
      "outputs": [
        {
          "internalType": "uint256",
          "name": "",
          "type": "uint256"
        }
      ],
      "stateMutability": "view",
      "type": "function"
    },
    {
      "inputs": [],
      "name": "maxInvestment",
      "outputs": [
        {
          "internalType": "uint256",
          "name": "",
          "type": "uint256"
        }
      ],
      "stateMutability": "view",
      "type": "function"
    },
    {
      "inputs": [],
      "name": "minInvestment",
      "outputs": [
        {
          "internalType": "uint256",
          "name": "",
          "type": "uint256"
        }
      ],
      "stateMutability": "view",
      "type": "function"
    },
    {
      "inputs": [],
      "name": "raisedAmount",
      "outputs": [
        {
          "internalType": "uint256",
          "name": "",
          "type": "uint256"
        }
      ],
      "stateMutability": "view",
      "type": "function"
    },
    {
      "inputs": [],
      "name": "resumeICO",
      "outputs": [],
      "stateMutability": "nonpayable",
      "type": "function"
    },
    {
      "inputs": [],
      "name": "startICO",
      "outputs": [],
      "stateMutability": "nonpayable",
      "type": "function"
    },
    {
      "inputs": [],
      "name": "token",
      "outputs": [
        {
          "internalType": "contract IERC20",
          "name": "",
          "type": "address"
        }
      ],
      "stateMutability": "view",
      "type": "function"
    },
    {
      "inputs": [],
      "name": "tokenPrice",
      "outputs": [
        {
          "internalType": "uint256",
          "name": "",
          "type": "uint256"
        }
      ],
      "stateMutability": "view",
      "type": "function"
    },
    {
      "stateMutability": "payable",
      "type": "receive"
    }
  ],
  "bytecode": "0x6080604052655af3107a4000600355670de0b6b3a7640000600455662386f26fc1000060065566b1a2bc2ec500006007553480156200003d57600080fd5b50604051620025923803806200259283398181016040528101906200006391906200020a565b336000806101000a81548173ffffffffffffffffffffffffffffffffffffffff021916908373ffffffffffffffffffffffffffffffffffffffff16021790555081600160006101000a81548173ffffffffffffffffffffffffffffffffffffffff021916908373ffffffffffffffffffffffffffffffffffffffff16021790555080600260006101000a81548173ffffffffffffffffffffffffffffffffffffffff021916908373ffffffffffffffffffffffffffffffffffffffff1602179055506001600b60006101000a81548160ff021916908360038111156200014e576200014d62000251565b5b0217905550505062000280565b600080fd5b600073ffffffffffffffffffffffffffffffffffffffff82169050919050565b60006200018d8262000160565b9050919050565b6200019f8162000180565b8114620001ab57600080fd5b50565b600081519050620001bf8162000194565b92915050565b6000620001d28262000160565b9050919050565b620001e481620001c5565b8114620001f057600080fd5b50565b6000815190506200020481620001d9565b92915050565b600080604083850312156200022457620002236200015b565b5b60006200023485828601620001ae565b92505060206200024785828601620001f3565b9150509250929050565b7f4e487b7100000000000000000000000000000000000000000000000000000000600052602160045260246000fd5b61230280620002906000396000f3fe6080604052600436106101425760003560e01c80638ac2c680116100b6578063c59ee1dc1161006f578063c59ee1dc1461041c578063e657807b14610447578063e8b5e51f1461045e578063f851a4401461047c578063fb86a404146104a7578063fc0c546a146104d257610152565b80638ac2c680146103305780638f2839701461035b5780639cbd7da514610384578063a7c3d71b1461039b578063ae764df3146103c6578063aeecdc2c146103f157610152565b806344df8e701161010857806344df8e70146102305780636127b2ca1461025b57806361fba37d146102865780637e1055b6146102c35780637fa8c158146102ee5780637ff9b5961461030557610152565b80622e13161461015d578062f53e6914610188578063129caa18146101b15780631aae3460146101c85780632e659d931461020557610152565b366101525761014f6104fd565b50005b61015a6104fd565b50005b34801561016957600080fd5b506101726109b4565b60405161017f919061164b565b60405180910390f35b34801561019457600080fd5b506101af60048036038101906101aa91906116c9565b6109ba565b005b3480156101bd57600080fd5b506101c6610a8c565b005b3480156101d457600080fd5b506101ef60048036038101906101ea9190611734565b610bbd565b6040516101fc919061164b565b60405180910390f35b34801561021157600080fd5b5061021a610bd5565b60405161022791906117fa565b60405180910390f35b34801561023c57600080fd5b50610245610d7e565b6040516102529190611837565b60405180910390f35b34801561026757600080fd5b50610270610fde565b60405161027d919061164b565b60405180910390f35b34801561029257600080fd5b506102ad60048036038101906102a89190611734565b611090565b6040516102ba919061164b565b60405180910390f35b3480156102cf57600080fd5b506102d8611144565b6040516102e5919061164b565b60405180910390f35b3480156102fa57600080fd5b5061030361114a565b005b34801561031157600080fd5b5061031a61129a565b604051610327919061164b565b60405180910390f35b34801561033c57600080fd5b506103456112a0565b604051610352919061164b565b60405180910390f35b34801561036757600080fd5b50610382600480360381019061037d9190611734565b6112a6565b005b34801561039057600080fd5b50610399611377565b005b3480156103a757600080fd5b506103b06114a7565b6040516103bd919061164b565b60405180910390f35b3480156103d257600080fd5b506103db6114ad565b6040516103e89190611861565b60405180910390f35b3480156103fd57600080fd5b506104066114d3565b60405161041391906118f3565b60405180910390f35b34801561042857600080fd5b506104316114e6565b60405161043e919061164b565b60405180910390f35b34801561045357600080fd5b5061045c6114ec565b005b6104666104fd565b6040516104739190611837565b60405180910390f35b34801561048857600080fd5b506104916115e2565b60405161049e919061191d565b60405180910390f35b3480156104b357600080fd5b506104bc611606565b6040516104c9919061164b565b60405180910390f35b3480156104de57600080fd5b506104e761160c565b6040516104f49190611997565b60405180910390f35b6000600160038111156105135761051261187c565b5b600b60009054906101000a900460ff1660038111156105355761053461187c565b5b14610575576040517f08c379a000000000000000000000000000000000000000000000000000000000815260040161056c906119fe565b60405180910390fd5b600654341015801561058957506007543411155b6105c8576040517f08c379a00000000000000000000000000000000000000000000000000000000081526004016105bf90611a6a565b60405180910390fd5b60075434600a60003373ffffffffffffffffffffffffffffffffffffffff1673ffffffffffffffffffffffffffffffffffffffff168152602001908152602001600020546106169190611ab9565b1115610657576040517f08c379a000000000000000000000000000000000000000000000000000000000815260040161064e90611b81565b60405180910390fd5b600454346005546106689190611ab9565b11156106a9576040517f08c379a00000000000000000000000000000000000000000000000000000000081526004016106a090611bed565b60405180910390fd5b6009544211156106ee576040517f08c379a00000000000000000000000000000000000000000000000000000000081526004016106e590611c7f565b60405180910390fd5b34600560008282546107009190611ab9565b9250508190555034600a60003373ffffffffffffffffffffffffffffffffffffffff1673ffffffffffffffffffffffffffffffffffffffff16815260200190815260200160002060008282546107569190611ab9565b925050819055506000600160009054906101000a900473ffffffffffffffffffffffffffffffffffffffff1673ffffffffffffffffffffffffffffffffffffffff16346040516107a590611cd0565b60006040518083038185875af1925050503d80600081146107e2576040519150601f19603f3d011682016040523d82523d6000602084013e6107e7565b606091505b505090508061082b576040517f08c379a000000000000000000000000000000000000000000000000000000000815260040161082290611d31565b60405180910390fd5b6000670de0b6b3a7640000600354346108449190611d80565b61084e9190611db1565b90506000600260009054906101000a900473ffffffffffffffffffffffffffffffffffffffff1673ffffffffffffffffffffffffffffffffffffffff1663a9059cbb33846040518363ffffffff1660e01b81526004016108af929190611e0b565b602060405180830381600087803b1580156108c957600080fd5b505af11580156108dd573d6000803e3d6000fd5b505050506040513d601f19601f820116820180604052508101906109019190611e60565b905080610943576040517f08c379a000000000000000000000000000000000000000000000000000000000815260040161093a90611d31565b60405180910390fd5b3373ffffffffffffffffffffffffffffffffffffffff163073ffffffffffffffffffffffffffffffffffffffff167f2e206bbdd5787cd6d3e97144dec044f9f15dd77a257afd27fa70cad6f03feae334856040516109a2929190611e8d565b60405180910390a36001935050505090565b60075481565b60008054906101000a900473ffffffffffffffffffffffffffffffffffffffff1673ffffffffffffffffffffffffffffffffffffffff163373ffffffffffffffffffffffffffffffffffffffff1614610a48576040517f08c379a0000000000000000000000000000000000000000000000000000000008152600401610a3f90611f02565b60405180910390fd5b80600160006101000a81548173ffffffffffffffffffffffffffffffffffffffff021916908373ffffffffffffffffffffffffffffffffffffffff16021790555050565b60008054906101000a900473ffffffffffffffffffffffffffffffffffffffff1673ffffffffffffffffffffffffffffffffffffffff163373ffffffffffffffffffffffffffffffffffffffff1614610b1a576040517f08c379a0000000000000000000000000000000000000000000000000000000008152600401610b1190611f02565b60405180910390fd5b60016003811115610b2e57610b2d61187c565b5b600b60009054906101000a900460ff166003811115610b5057610b4f61187c565b5b14610b90576040517f08c379a0000000000000000000000000000000000000000000000000000000008152600401610b8790611f6e565b60405180910390fd5b6003600b60006101000a81548160ff02191690836003811115610bb657610bb561187c565b5b0217905550565b600a6020528060005260406000206000915090505481565b606060006003811115610beb57610bea61187c565b5b600b60009054906101000a900460ff166003811115610c0d57610c0c61187c565b5b1415610c50576040518060400160405280600b81526020017f4e6f7420537461727465640000000000000000000000000000000000000000008152509050610d7b565b60016003811115610c6457610c6361187c565b5b600b60009054906101000a900460ff166003811115610c8657610c8561187c565b5b1415610cc9576040518060400160405280600781526020017f52756e6e696e67000000000000000000000000000000000000000000000000008152509050610d7b565b60026003811115610cdd57610cdc61187c565b5b600b60009054906101000a900460ff166003811115610cff57610cfe61187c565b5b1415610d42576040518060400160405280600381526020017f456e6400000000000000000000000000000000000000000000000000000000008152509050610d7b565b6040518060400160405280600681526020017f48616c746564000000000000000000000000000000000000000000000000000081525090505b90565b600060026003811115610d9457610d9361187c565b5b600b60009054906101000a900460ff166003811115610db657610db561187c565b5b14610df6576040517f08c379a0000000000000000000000000000000000000000000000000000000008152600401610ded90611fda565b60405180910390fd5b6000600260009054906101000a900473ffffffffffffffffffffffffffffffffffffffff1673ffffffffffffffffffffffffffffffffffffffff166370a08231306040518263ffffffff1660e01b8152600401610e53919061191d565b60206040518083038186803b158015610e6b57600080fd5b505afa158015610e7f573d6000803e3d6000fd5b505050506040513d601f19601f82011682018060405250810190610ea39190612026565b90506000600260009054906101000a900473ffffffffffffffffffffffffffffffffffffffff1673ffffffffffffffffffffffffffffffffffffffff1663a9059cbb6000846040518363ffffffff1660e01b8152600401610f05929190611e0b565b602060405180830381600087803b158015610f1f57600080fd5b505af1158015610f33573d6000803e3d6000fd5b505050506040513d601f19601f82011682018060405250810190610f579190611e60565b905080610f99576040517f08c379a0000000000000000000000000000000000000000000000000000000008152600401610f909061209f565b60405180910390fd5b7ffe9e0b0c1e3e9216717d5f66d10bc310b12c366417e150b4b1af9fb9620bca9160008342604051610fcd939291906120bf565b60405180910390a160019250505090565b6000600260009054906101000a900473ffffffffffffffffffffffffffffffffffffffff1673ffffffffffffffffffffffffffffffffffffffff166370a08231306040518263ffffffff1660e01b815260040161103b919061191d565b60206040518083038186803b15801561105357600080fd5b505afa158015611067573d6000803e3d6000fd5b505050506040513d601f19601f8201168201806040525081019061108b9190612026565b905090565b6000600260009054906101000a900473ffffffffffffffffffffffffffffffffffffffff1673ffffffffffffffffffffffffffffffffffffffff166370a08231836040518263ffffffff1660e01b81526004016110ed919061191d565b60206040518083038186803b15801561110557600080fd5b505afa158015611119573d6000803e3d6000fd5b505050506040513d601f19601f8201168201806040525081019061113d9190612026565b9050919050565b60095481565b60008054906101000a900473ffffffffffffffffffffffffffffffffffffffff1673ffffffffffffffffffffffffffffffffffffffff163373ffffffffffffffffffffffffffffffffffffffff16146111d8576040517f08c379a00000000000000000000000000000000000000000000000000000000081526004016111cf90611f02565b60405180910390fd5b600060038111156111ec576111eb61187c565b5b600b60009054906101000a900460ff16600381111561120e5761120d61187c565b5b1461124e576040517f08c379a000000000000000000000000000000000000000000000000000000000815260040161124590612142565b60405180910390fd5b426008819055506301e133806008546112679190611ab9565b6009819055506001600b60006101000a81548160ff021916908360038111156112935761129261187c565b5b0217905550565b60035481565b60065481565b60008054906101000a900473ffffffffffffffffffffffffffffffffffffffff1673ffffffffffffffffffffffffffffffffffffffff163373ffffffffffffffffffffffffffffffffffffffff1614611334576040517f08c379a000000000000000000000000000000000000000000000000000000000815260040161132b90611f02565b60405180910390fd5b806000806101000a81548173ffffffffffffffffffffffffffffffffffffffff021916908373ffffffffffffffffffffffffffffffffffffffff16021790555050565b60008054906101000a900473ffffffffffffffffffffffffffffffffffffffff1673ffffffffffffffffffffffffffffffffffffffff163373ffffffffffffffffffffffffffffffffffffffff1614611405576040517f08c379a00000000000000000000000000000000000000000000000000000000081526004016113fc90611f02565b60405180910390fd5b6003808111156114185761141761187c565b5b600b60009054906101000a900460ff16600381111561143a5761143961187c565b5b1461147a576040517f08c379a0000000000000000000000000000000000000000000000000000000008152600401611471906121ae565b60405180910390fd5b6001600b60006101000a81548160ff021916908360038111156114a05761149f61187c565b5b0217905550565b60085481565b600160009054906101000a900473ffffffffffffffffffffffffffffffffffffffff1681565b600b60009054906101000a900460ff1681565b60055481565b60016003811115611500576114ff61187c565b5b600b60009054906101000a900460ff1660038111156115225761152161187c565b5b14611562576040517f08c379a00000000000000000000000000000000000000000000000000000000081526004016115599061221a565b60405180910390fd5b600954421180611576575060045460055410155b6115b5576040517f08c379a00000000000000000000000000000000000000000000000000000000081526004016115ac906122ac565b60405180910390fd5b6002600b60006101000a81548160ff021916908360038111156115db576115da61187c565b5b0217905550565b60008054906101000a900473ffffffffffffffffffffffffffffffffffffffff1681565b60045481565b600260009054906101000a900473ffffffffffffffffffffffffffffffffffffffff1681565b6000819050919050565b61164581611632565b82525050565b6000602082019050611660600083018461163c565b92915050565b600080fd5b600073ffffffffffffffffffffffffffffffffffffffff82169050919050565b60006116968261166b565b9050919050565b6116a68161168b565b81146116b157600080fd5b50565b6000813590506116c38161169d565b92915050565b6000602082840312156116df576116de611666565b5b60006116ed848285016116b4565b91505092915050565b60006117018261166b565b9050919050565b611711816116f6565b811461171c57600080fd5b50565b60008135905061172e81611708565b92915050565b60006020828403121561174a57611749611666565b5b60006117588482850161171f565b91505092915050565b600081519050919050565b600082825260208201905092915050565b60005b8381101561179b578082015181840152602081019050611780565b838111156117aa576000848401525b50505050565b6000601f19601f8301169050919050565b60006117cc82611761565b6117d6818561176c565b93506117e681856020860161177d565b6117ef816117b0565b840191505092915050565b6000602082019050818103600083015261181481846117c1565b905092915050565b60008115159050919050565b6118318161181c565b82525050565b600060208201905061184c6000830184611828565b92915050565b61185b8161168b565b82525050565b60006020820190506118766000830184611852565b92915050565b7f4e487b7100000000000000000000000000000000000000000000000000000000600052602160045260246000fd5b600481106118bc576118bb61187c565b5b50565b60008190506118cd826118ab565b919050565b60006118dd826118bf565b9050919050565b6118ed816118d2565b82525050565b600060208201905061190860008301846118e4565b92915050565b611917816116f6565b82525050565b6000602082019050611932600083018461190e565b92915050565b6000819050919050565b600061195d6119586119538461166b565b611938565b61166b565b9050919050565b600061196f82611942565b9050919050565b600061198182611964565b9050919050565b61199181611976565b82525050565b60006020820190506119ac6000830184611988565b92915050565b7f49434f2069736e27742072756e6e696e67000000000000000000000000000000600082015250565b60006119e860118361176c565b91506119f3826119b2565b602082019050919050565b60006020820190508181036000830152611a17816119db565b9050919050565b7f436865636b204d696e20616e64204d617820496e766573746d656e7400000000600082015250565b6000611a54601c8361176c565b9150611a5f82611a1e565b602082019050919050565b60006020820190508181036000830152611a8381611a47565b9050919050565b7f4e487b7100000000000000000000000000000000000000000000000000000000600052601160045260246000fd5b6000611ac482611632565b9150611acf83611632565b9250827fffffffffffffffffffffffffffffffffffffffffffffffffffffffffffffffff03821115611b0457611b03611a8a565b5b828201905092915050565b7f496e766573746f722072656163686564206d6178696d756d20496e766573746d60008201527f656e7420416d6f756e7400000000000000000000000000000000000000000000602082015250565b6000611b6b602a8361176c565b9150611b7682611b0f565b604082019050919050565b60006020820190508181036000830152611b9a81611b5e565b9050919050565b7f53656e642077697468696e20686172646361702072616e676500000000000000600082015250565b6000611bd760198361176c565b9150611be282611ba1565b602082019050919050565b60006020820190508181036000830152611c0681611bca565b9050919050565b7f49434f20616c72656164792052656163686564204d6178696d756d2074696d6560008201527f206c696d69740000000000000000000000000000000000000000000000000000602082015250565b6000611c6960268361176c565b9150611c7482611c0d565b604082019050919050565b60006020820190508181036000830152611c9881611c5c565b9050919050565b600081905092915050565b50565b6000611cba600083611c9f565b9150611cc582611caa565b600082019050919050565b6000611cdb82611cad565b9150819050919050565b7f4661696c656420746f20496e7665737400000000000000000000000000000000600082015250565b6000611d1b60108361176c565b9150611d2682611ce5565b602082019050919050565b60006020820190508181036000830152611d4a81611d0e565b9050919050565b7f4e487b7100000000000000000000000000000000000000000000000000000000600052601260045260246000fd5b6000611d8b82611632565b9150611d9683611632565b925082611da657611da5611d51565b5b828204905092915050565b6000611dbc82611632565b9150611dc783611632565b9250817fffffffffffffffffffffffffffffffffffffffffffffffffffffffffffffffff0483118215151615611e0057611dff611a8a565b5b828202905092915050565b6000604082019050611e20600083018561190e565b611e2d602083018461163c565b9392505050565b611e3d8161181c565b8114611e4857600080fd5b50565b600081519050611e5a81611e34565b92915050565b600060208284031215611e7657611e75611666565b5b6000611e8484828501611e4b565b91505092915050565b6000604082019050611ea2600083018561163c565b611eaf602083018461163c565b9392505050565b7f41646d696e204f6e6c792066756e6374696f6e00000000000000000000000000600082015250565b6000611eec60138361176c565b9150611ef782611eb6565b602082019050919050565b60006020820190508181036000830152611f1b81611edf565b9050919050565b7f49434f2069736e27742072756e6e696e67207965740000000000000000000000600082015250565b6000611f5860158361176c565b9150611f6382611f22565b602082019050919050565b60006020820190508181036000830152611f8781611f4b565b9050919050565b7f49434f2069736e2774206f766572207965740000000000000000000000000000600082015250565b6000611fc460128361176c565b9150611fcf82611f8e565b602082019050919050565b60006020820190508181036000830152611ff381611fb7565b9050919050565b61200381611632565b811461200e57600080fd5b50565b60008151905061202081611ffa565b92915050565b60006020828403121561203c5761203b611666565b5b600061204a84828501612011565b91505092915050565b7f4661696c656420746f206275726e2072656d61696e696e6720746f6b656e7300600082015250565b6000612089601f8361176c565b915061209482612053565b602082019050919050565b600060208201905081810360008301526120b88161207c565b9050919050565b60006060820190506120d4600083018661190e565b6120e1602083018561163c565b6120ee604083018461163c565b949350505050565b7f49434f2069736e277420696e206265666f726520737461746500000000000000600082015250565b600061212c60198361176c565b9150612137826120f6565b602082019050919050565b6000602082019050818103600083015261215b8161211f565b9050919050565b7f49434f2053746174652069736e27742068616c74656420796574000000000000600082015250565b6000612198601a8361176c565b91506121a382612162565b602082019050919050565b600060208201905081810360008301526121c78161218b565b9050919050565b7f49434f2053686f756c6420626520696e2052756e6e696e672053746174650000600082015250565b6000612204601e8361176c565b915061220f826121ce565b602082019050919050565b60006020820190508181036000830152612233816121f7565b9050919050565b7f49434f2048617264636170206f722074696d656c696d6974206e6f742072656160008201527f6368656400000000000000000000000000000000000000000000000000000000602082015250565b600061229660248361176c565b91506122a18261223a565b604082019050919050565b600060208201905081810360008301526122c581612289565b905091905056fea2646970667358221220462139b311ae027a459eca11e6f2fe10fccf78f220029b93ae89a61ddd2aa8c064736f6c63430008090033",
  "linkReferences": {},
  "deployedLinkReferences": {}
}